:1000C30075A0FE1200DE12000E8F0AE50A60F7B477
:0B00D30001F4050BE50BC3940280EB69
:03000B0002006F81
:0B006F00C0E0C0D075D000C000C0078A
:10007A00758A18758CFC0509E50970020508C39490
:10008A00D0E50894074029750800750900E50B704A
:10009A000DAFA07801EF08800123D8FDF5A0E50B8C
:1000AA00B4010DAFA07801EF08800103D8FDF5A0D7
:0900BA00D007D000D0D0D0E03214
:1000DE004389015389F0758A18758CFCC28DD28CB8
:0700EE00D2A9D2AFC2B92272
:1000F500EF4E600F7D027CEFDCFEDDFCEF1F70F044
:030105001E80ED6C
:0101080022D4
:10000E00E4F50C20B1137F14FE1200F530B1FD7F24
:10001E00147E001200F5750C0120B0147F147E00C2
:10002E001200F530B0FD7F147E001200F5750C0243
:10003E0020B2147F147E001200F530B2FD7F147EC4
:10004E00001200F5750C0320B3147F147E0012000D
:10005E00F530B3FD7F147E001200F5750C04AF0C65
:01006E00226F
:03000000020109F1
:0C010900787FE4F6D8FD75810C0200C37D
:00000001FF
